{
  "transactions": [
    {
      "hash": "0x9e5c630e631de85004052537f307641630fed1d3106bf0935d364ec6060c179c",
      "transactionType": "CALL",
      "contractName": null,
      "contractAddress": "0x779877a7b0d9e8603169ddbd7836e478b4624789",
      "function": "transferAndCall(address,uint256,bytes)",
      "arguments": [
        "0x9DdfaCa8183c41ad55329BdeeD9F6A8d53168B1B",
        "3000000000000000000",
        "0x1e2b383957565b8c7348a744fd8aed043b251d369b0ac7d49c42ffebd049ba4a"
      ],
      "transaction": {
        "from": "0x408bd7a97a8a8be66177e4428a8531c4f0ee1eeb",
        "to": "0x779877a7b0d9e8603169ddbd7836e478b4624789",
        "gas": "0x1c1ff",
        "value": "0x0",
        "input": "0x4000aea00000000000000000000000009ddfaca8183c41ad55329bdeed9f6a8d53168b1b00000000000000000000000000000000000000000000000029a2241af62c0000000000000000000000000000000000000000000000000000000000000000006000000000000000000000000000000000000000000000000000000000000000201e2b383957565b8c7348a744fd8aed043b251d369b0ac7d49c42ffebd049ba4a",
        "nonce": "0x8",
        "chainId": "0xaa36a7"
      },
      "additionalContracts": [],
      "isFixedGasLimit": false
    }
  ],
  "receipts": [
    {
      "status": "0x1",
      "cumulativeGasUsed": "0x16fbba8",
      "logs": [
        {
          "address": "0x779877a7b0d9e8603169ddbd7836e478b4624789",
          "topics": [
            "0xddf252ad1be2c89b69c2b068fc378daa952ba7f163c4a11628f55a4df523b3ef",
            "0x000000000000000000000000408bd7a97a8a8be66177e4428a8531c4f0ee1eeb",
            "0x0000000000000000000000009ddfaca8183c41ad55329bdeed9f6a8d53168b1b"
          ],
          "data": "0x00000000000000000000000000000000000000000000000029a2241af62c0000",
          "blockHash": "0xa8dafc429a3e25e23b06215e5ef02512c30c12ba3350eceed275715ae0281f64",
          "blockNumber": "0x67941d",
          "transactionHash": "0x9e5c630e631de85004052537f307641630fed1d3106bf0935d364ec6060c179c",
          "transactionIndex": "0x9c",
          "logIndex": "0x107",
          "removed": false
        },
        {
          "address": "0x779877a7b0d9e8603169ddbd7836e478b4624789",
          "topics": [
            "0xe19260aff97b920c7df27010903aeb9c8d2be5d310a2c67824cf3f15396e4c16",
            "0x000000000000000000000000408bd7a97a8a8be66177e4428a8531c4f0ee1eeb",
            "0x0000000000000000000000009ddfaca8183c41ad55329bdeed9f6a8d53168b1b"
          ],
          "data": "0x00000000000000000000000000000000000000000000000029a2241af62c0000000000000000000000000000000000000000000000000000000000000000004000000000000000000000000000000000000000000000000000000000000000201e2b383957565b8c7348a744fd8aed043b251d369b0ac7d49c42ffebd049ba4a",
          "blockHash": "0xa8dafc429a3e25e23b06215e5ef02512c30c12ba3350eceed275715ae0281f64",
          "blockNumber": "0x67941d",
          "transactionHash": "0x9e5c630e631de85004052537f307641630fed1d3106bf0935d364ec6060c179c",
          "transactionIndex": "0x9c",
          "logIndex": "0x108",
          "removed": false
        },
        {
          "address": "0x9ddfaca8183c41ad55329bdeed9f6a8d53168b1b",
          "topics": [
            "0x1ced9348ff549fceab2ac57cd3a9de38edaaab274b725ee82c23e8fc8c4eec7a",
            "0x1e2b383957565b8c7348a744fd8aed043b251d369b0ac7d49c42ffebd049ba4a"
          ],
          "data": "0x000000000000000000000000000000000000000000000000000000000000000000000000000000000000000000000000000000000000000029a2241af62c0000",
          "blockHash": "0xa8dafc429a3e25e23b06215e5ef02512c30c12ba3350eceed275715ae0281f64",
          "blockNumber": "0x67941d",
          "transactionHash": "0x9e5c630e631de85004052537f307641630fed1d3106bf0935d364ec6060c179c",
          "transactionIndex": "0x9c",
          "logIndex": "0x109",
          "removed": false
        }
      ],
      "logsBloom": "0x00000004000000000000000000000000000000000020000000000000020000000000000000000000000002000000000080000000000000000000000000000000004000000000000000000008000000000000000000000000000020000020000008000000000000000000000000000000000000000000000000000012000040000000000000000000000000010000800000000020000000000000000000000000000000000000000000000000010000000000000000000000000004000000000000000002000000000000000000000000000000000000000100000000000100000010080000000000800000000000000000000000000000000000000000000000",
      "type": "0x2",
      "transactionHash": "0x9e5c630e631de85004052537f307641630fed1d3106bf0935d364ec6060c179c",
      "transactionIndex": "0x9c",
      "blockHash": "0xa8dafc429a3e25e23b06215e5ef02512c30c12ba3350eceed275715ae0281f64",
      "blockNumber": "0x67941d",
      "gasUsed": "0x133b1",
      "effectiveGasPrice": "0x30f8f2edd6",
      "from": "0x408bd7a97a8a8be66177e4428a8531c4f0ee1eeb",
      "to": "0x779877a7b0d9e8603169ddbd7836e478b4624789",
      "contractAddress": null
    }
  ],
  "libraries": [],
  "pending": [],
  "returns": {},
  "timestamp": 1727704022,
  "chain": 11155111,
  "commit": "756b015"
}